{
  "contractName": "Review",
  "abi": [
    {
      "inputs": [],
      "stateMutability": "nonpayable",
      "type": "constructor"
    },
    {
      "anonymous": false,
      "inputs": [
        {
          "indexed": false,
          "internalType": "address",
          "name": "",
          "type": "address"
        },
        {
          "indexed": false,
          "internalType": "uint256",
          "name": "",
          "type": "uint256"
        }
      ],
      "name": "Received",
      "type": "event"
    },
    {
      "inputs": [],
      "name": "contractName",
      "outputs": [
        {
          "internalType": "string",
          "name": "",
          "type": "string"
        }
      ],
      "stateMutability": "view",
      "type": "function",
      "constant": true
    },
    {
      "inputs": [],
      "name": "owner",
      "outputs": [
        {
          "internalType": "address",
          "name": "",
          "type": "address"
        }
      ],
      "stateMutability": "view",
      "type": "function",
      "constant": true
    },
    {
      "inputs": [],
      "name": "restaurantCount",
      "outputs": [
        {
          "internalType": "uint256",
          "name": "",
          "type": "uint256"
        }
      ],
      "stateMutability": "view",
      "type": "function",
      "constant": true
    },
    {
      "inputs": [
        {
          "internalType": "uint256",
          "name": "",
          "type": "uint256"
        }
      ],
      "name": "restaurants",
      "outputs": [
        {
          "internalType": "string",
          "name": "name",
          "type": "string"
        },
        {
          "internalType": "string",
          "name": "restaurantAddress",
          "type": "string"
        },
        {
          "internalType": "string",
          "name": "restaurantLocality",
          "type": "string"
        },
        {
          "internalType": "string",
          "name": "restaurantCountry",
          "type": "string"
        },
        {
          "internalType": "string",
          "name": "restaurantWebsite",
          "type": "string"
        },
        {
          "internalType": "string",
          "name": "imageHash",
          "type": "string"
        },
        {
          "internalType": "string",
          "name": "rating",
          "type": "string"
        },
        {
          "internalType": "bool",
          "name": "deleted",
          "type": "bool"
        },
        {
          "internalType": "address",
          "name": "restaurantOwner",
          "type": "address"
        },
        {
          "internalType": "uint256",
          "name": "reviewCount",
          "type": "uint256"
        },
        {
          "internalType": "uint256",
          "name": "numberOfCodes",
          "type": "uint256"
        }
      ],
      "stateMutability": "view",
      "type": "function",
      "constant": true
    },
    {
      "stateMutability": "payable",
      "type": "receive",
      "payable": true
    },
    {
      "inputs": [
        {
          "internalType": "uint256",
          "name": "_restaurantId",
          "type": "uint256"
        }
      ],
      "name": "deleteRestaurant",
      "outputs": [],
      "stateMutability": "nonpayable",
      "type": "function"
    },
    {
      "inputs": [
        {
          "internalType": "uint256",
          "name": "restaurantID",
          "type": "uint256"
        },
        {
          "internalType": "uint256",
          "name": "reviewID",
          "type": "uint256"
        }
      ],
      "name": "getReview",
      "outputs": [
        {
          "components": [
            {
              "internalType": "string",
              "name": "name",
              "type": "string"
            },
            {
              "internalType": "string",
              "name": "text",
              "type": "string"
            },
            {
              "internalType": "uint8",
              "name": "rating",
              "type": "uint8"
            },
            {
              "internalType": "string",
              "name": "code",
              "type": "string"
            },
            {
              "internalType": "string",
              "name": "timeAdded",
              "type": "string"
            },
            {
              "internalType": "address",
              "name": "reviewOwner",
              "type": "address"
            }
          ],
          "internalType": "struct Review.ReviewStruct",
          "name": "",
          "type": "tuple"
        }
      ],
      "stateMutability": "view",
      "type": "function",
      "constant": true
    },
    {
      "inputs": [
        {
          "internalType": "string",
          "name": "_name",
          "type": "string"
        },
        {
          "internalType": "string",
          "name": "_address",
          "type": "string"
        },
        {
          "internalType": "string",
          "name": "_locality",
          "type": "string"
        },
        {
          "internalType": "string",
          "name": "_country",
          "type": "string"
        },
        {
          "internalType": "string",
          "name": "_website",
          "type": "string"
        },
        {
          "internalType": "string",
          "name": "_imageHash",
          "type": "string"
        },
        {
          "internalType": "address payable",
          "name": "_restaurantOwner",
          "type": "address"
        }
      ],
      "name": "addRestaurant",
      "outputs": [
        {
          "internalType": "uint256",
          "name": "restaurantID",
          "type": "uint256"
        }
      ],
      "stateMutability": "nonpayable",
      "type": "function"
    },
    {
      "inputs": [
        {
          "internalType": "uint256",
          "name": "_restaurantId",
          "type": "uint256"
        },
        {
          "internalType": "uint256",
          "name": "_idx1",
          "type": "uint256"
        },
        {
          "internalType": "uint256",
          "name": "_idx2",
          "type": "uint256"
        },
        {
          "internalType": "string[]",
          "name": "_codesArray",
          "type": "string[]"
        },
        {
          "internalType": "string",
          "name": "_timeGenerated",
          "type": "string"
        }
      ],
      "name": "buyCodes",
      "outputs": [],
      "stateMutability": "nonpayable",
      "type": "function"
    },
    {
      "inputs": [
        {
          "internalType": "uint256",
          "name": "_restaurantId",
          "type": "uint256"
        },
        {
          "internalType": "uint256",
          "name": "_codeIndex",
          "type": "uint256"
        }
      ],
      "name": "getCode",
      "outputs": [
        {
          "components": [
            {
              "internalType": "string",
              "name": "code",
              "type": "string"
            },
            {
              "internalType": "string",
              "name": "timeGenerated",
              "type": "string"
            }
          ],
          "internalType": "struct Review.Code",
          "name": "",
          "type": "tuple"
        }
      ],
      "stateMutability": "view",
      "type": "function",
      "constant": true
    },
    {
      "inputs": [
        {
          "internalType": "uint256",
          "name": "_restaurantId",
          "type": "uint256"
        },
        {
          "internalType": "string",
          "name": "_name",
          "type": "string"
        },
        {
          "internalType": "string",
          "name": "_description",
          "type": "string"
        },
        {
          "internalType": "uint8",
          "name": "_rating",
          "type": "uint8"
        },
        {
          "internalType": "string",
          "name": "_code",
          "type": "string"
        },
        {
          "internalType": "string",
          "name": "_timeAdded",
          "type": "string"
        },
        {
          "internalType": "address payable",
          "name": "_to",
          "type": "address"
        }
      ],
      "name": "addReview",
      "outputs": [
        {
          "internalType": "bool",
          "name": "success",
          "type": "bool"
        }
      ],
      "stateMutability": "payable",
      "type": "function",
      "payable": true
    },
    {
      "inputs": [
        {
          "internalType": "uint256",
          "name": "_restaurantID",
          "type": "uint256"
        },
        {
          "internalType": "string",
          "name": "_imageHash",
          "type": "string"
        }
      ],
      "name": "uploadImage",
      "outputs": [],
      "stateMutability": "nonpayable",
      "type": "function"
    },
    {
      "inputs": [
        {
          "internalType": "uint256",
          "name": "_restaurantId",
          "type": "uint256"
        },
        {
          "internalType": "string",
          "name": "_address",
          "type": "string"
        },
        {
          "internalType": "string",
          "name": "_locality",
          "type": "string"
        },
        {
          "internalType": "string",
          "name": "_country",
          "type": "string"
        },
        {
          "internalType": "string",
          "name": "_website",
          "type": "string"
        }
      ],
      "name": "editRestaurant",
      "outputs": [],
      "stateMutability": "nonpayable",
      "type": "function"
    }
  ],
  "bytecode": "0x60806040526040518060400160405280600981526020017f52657669657720534300000000000000000000000000000000000000000000008152506000908051906020019062000051929190620000ac565b5060006002553480156200006457600080fd5b5033600160006101000a81548173ffffffffffffffffffffffffffffffffffffffff021916908373ffffffffffffffffffffffffffffffffffffffff160217905550620001c1565b828054620000ba906200015c565b90600052602060002090601f016020900481019282620000de57600085556200012a565b82601f10620000f957805160ff19168380011785556200012a565b828001600101855582156200012a579182015b82811115620001295782518255916020019190600101906200010c565b5b5090506200013991906200013d565b5090565b5b80821115620001585760008160009055506001016200013e565b5090565b600060028204905060018216806200017557607f821691505b602082108114156200018c576200018b62000192565b5b50919050565b7f4e487b7100000000000000000000000000000000000000000000000000000000600052602260045260246000fd5b6121ec80620001d16000396000f3fe6080604052600436106100ab5760003560e01c8063ad5461d811610064578063ad5461d814610212578063b11b91e614610259578063c7503f4e14610284578063db4df4c3146102ad578063dfa505ed146102dd578063e8abdcc61461031a576100eb565b8063018897fa146100f0578063384efb081461011957806353f577b21461015657806375d0c0dc1461017f5780638da5cb5b146101aa5780638e434657146101d5576100eb565b366100eb577f88a5966d370b9919b20f3e2c13ff65706f196a4e32cc2c12bf57088f8852587433346040516100e1929190611caa565b60405180910390a1005b600080fd5b3480156100fc57600080fd5b506101176004803603810190610112919061175a565b610343565b005b34801561012557600080fd5b50610140600480360381019061013b919061192f565b6103f6565b60405161014d9190611dec565b60405180910390f35b34801561016257600080fd5b5061017d6004803603810190610178919061196b565b61055c565b005b34801561018b57600080fd5b50610194610672565b6040516101a19190611cee565b60405180910390f35b3480156101b657600080fd5b506101bf610700565b6040516101cc9190611c8f565b60405180910390f35b3480156101e157600080fd5b506101fc60048036038101906101f791906115af565b610726565b6040516102099190611e30565b60405180910390f35b34801561021e57600080fd5b50610239600480360381019061023491906116dd565b610869565b6040516102509b9a99989796959493929190611d10565b60405180910390f35b34801561026557600080fd5b5061026e610ca8565b60405161027b9190611e30565b60405180910390f35b34801561029057600080fd5b506102ab60048036038101906102a69190611706565b610cae565b005b6102c760048036038101906102c29190611831565b610d25565b6040516102d49190611cd3565b60405180910390f35b3480156102e957600080fd5b5061030460048036038101906102ff919061192f565b611046565b6040516103119190611e0e565b60405180910390f35b34801561032657600080fd5b50610341600480360381019061033c91906116dd565b611343565b005b8360036000878152602001908152602001600020600101908051906020019061036d929190611375565b5082600360008781526020019081526020016000206002019080519060200190610398929190611375565b50816003600087815260200190815260200160002060030190805190602001906103c3929190611375565b50806003600087815260200190815260200160002060040190805190602001906103ee929190611375565b505050505050565b6103fe6113fb565b60036000848152602001908152602001600020600a01600083815260200190815260200160002060405180604001604052908160008201805461044090612058565b80601f016020809104026020016040519081016040528092919081815260200182805461046c90612058565b80156104b95780601f1061048e576101008083540402835291602001916104b9565b820191906000526020600020905b81548152906001019060200180831161049c57829003601f168201915b505050505081526020016001820180546104d290612058565b80601f01602080910402602001604051908101604052809291908181526020018280546104fe90612058565b801561054b5780601f106105205761010080835404028352916020019161054b565b820191906000526020600020905b81548152906001019060200180831161052e57829003601f168201915b505050505081525050905092915050565b6000600360008781526020019081526020016000209050848482600901546105849190611f25565b61058e9190611f7b565b816009018190555060008590505b848110156106695760405180604001604052808588846105bc9190611f7b565b815181106105f3577f4e487b7100000000000000000000000000000000000000000000000000000000600052603260045260246000fd5b602002602001015181526020018481525082600a0160008381526020019081526020016000206000820151816000019080519060200190610635929190611375565b506020820151816001019080519060200190610652929190611375565b5090505080806106619061208a565b91505061059c565b50505050505050565b6000805461067f90612058565b80601f01602080910402602001604051908101604052809291908181526020018280546106ab90612058565b80156106f85780601f106106cd576101008083540402835291602001916106f8565b820191906000526020600020905b8154815290600101906020018083116106db57829003601f168201915b505050505081565b600160009054906101000a900473ffffffffffffffffffffffffffffffffffffffff1681565b600060025490506000600360008381526020019081526020016000209050600260008154809291906107579061208a565b919050555088816000019080519060200190610774929190611375565b508781600101908051906020019061078d929190611375565b50868160020190805190602001906107a6929190611375565b50858160030190805190602001906107bf929190611375565b50848160040190805190602001906107d8929190611375565b50838160050190805190602001906107f1929190611375565b5060405180602001604052806000815250816006019080519060200190610819929190611375565b50828160070160016101000a81548173ffffffffffffffffffffffffffffffffffffffff021916908373ffffffffffffffffffffffffffffffffffffffff16021790555050979650505050505050565b600360205280600052604060002060009150905080600001805461088c90612058565b80601f01602080910402602001604051908101604052809291908181526020018280546108b890612058565b80156109055780601f106108da57610100808354040283529160200191610905565b820191906000526020600020905b8154815290600101906020018083116108e857829003601f168201915b50505050509080600101805461091a90612058565b80601f016020809104026020016040519081016040528092919081815260200182805461094690612058565b80156109935780601f1061096857610100808354040283529160200191610993565b820191906000526020600020905b81548152906001019060200180831161097657829003601f168201915b5050505050908060020180546109a890612058565b80601f01602080910402602001604051908101604052809291908181526020018280546109d490612058565b8015610a215780601f106109f657610100808354040283529160200191610a21565b820191906000526020600020905b815481529060010190602001808311610a0457829003601f168201915b505050505090806003018054610a3690612058565b80601f0160208091040260200160405190810160405280929190818152602001828054610a6290612058565b8015610aaf5780601f10610a8457610100808354040283529160200191610aaf565b820191906000526020600020905b815481529060010190602001808311610a9257829003601f168201915b505050505090806004018054610ac490612058565b80601f0160208091040260200160405190810160405280929190818152602001828054610af090612058565b8015610b3d5780601f10610b1257610100808354040283529160200191610b3d565b820191906000526020600020905b815481529060010190602001808311610b2057829003601f168201915b505050505090806005018054610b5290612058565b80601f0160208091040260200160405190810160405280929190818152602001828054610b7e90612058565b8015610bcb5780601f10610ba057610100808354040283529160200191610bcb565b820191906000526020600020905b815481529060010190602001808311610bae57829003601f168201915b505050505090806006018054610be090612058565b80601f0160208091040260200160405190810160405280929190818152602001828054610c0c90612058565b8015610c595780601f10610c2e57610100808354040283529160200191610c59565b820191906000526020600020905b815481529060010190602001808311610c3c57829003601f168201915b5050505050908060070160009054906101000a900460ff16908060070160019054906101000a900473ffffffffffffffffffffffffffffffffffffffff1690806008015490806009015490508b565b60025481565b6000815111610cbc57600080fd5b600073ffffffffffffffffffffffffffffffffffffffff163373ffffffffffffffffffffffffffffffffffffffff161415610cf657600080fd5b80600360008481526020019081526020016000206005019080519060200190610d20929190611375565b505050565b600080600360008a815260200190815260200160002090506040518060c001604052808981526020018881526020018760ff1681526020018681526020018581526020018473ffffffffffffffffffffffffffffffffffffffff1681525081600b016000836008016000815480929190610d9e9061208a565b9190505581526020019081526020016000206000820151816000019080519060200190610dcc929190611375565b506020820151816001019080519060200190610de9929190611375565b5060408201518160020160006101000a81548160ff021916908360ff1602179055506060820151816003019080519060200190610e27929190611375565b506080820151816004019080519060200190610e44929190611375565b5060a08201518160050160006101000a81548173ffffffffffffffffffffffffffffffffffffffff021916908373ffffffffffffffffffffffffffffffffffffffff16021790555090505060008060009050600091505b8260080154821015610f315782600b016000838152602001908152602001600020600301604051602001610ecf9190611c78565b6040516020818303038152906040528051906020012087604051602001610ef69190611c61565b604051602081830303815290604052805190602001201415610f1e576000935050505061103b565b8180610f299061208a565b925050610e9b565b600091505b8260090154821015610fc95782600a016000838152602001908152602001600020600001604051602001610f6a9190611c78565b6040516020818303038152906040528051906020012087604051602001610f919190611c61565b604051602081830303815290604052805190602001201415610fb65760019050610fc9565b8180610fc19061208a565b925050610f36565b8015611033573373ffffffffffffffffffffffffffffffffffffffff166108fc655af3107a400034610ffb9190611f25565b9081150290604051600060405180830381858888f19350505050158015611026573d6000803e3d6000fd5b506001935050505061103b565b600093505050505b979650505050505050565b61104e611415565b60036000848152602001908152602001600020600b0160008381526020019081526020016000206040518060c001604052908160008201805461109090612058565b80601f01602080910402602001604051908101604052809291908181526020018280546110bc90612058565b80156111095780601f106110de57610100808354040283529160200191611109565b820191906000526020600020905b8154815290600101906020018083116110ec57829003601f168201915b5050505050815260200160018201805461112290612058565b80601f016020809104026020016040519081016040528092919081815260200182805461114e90612058565b801561119b5780601f106111705761010080835404028352916020019161119b565b820191906000526020600020905b81548152906001019060200180831161117e57829003601f168201915b505050505081526020016002820160009054906101000a900460ff1660ff1660ff1681526020016003820180546111d190612058565b80601f01602080910402602001604051908101604052809291908181526020018280546111fd90612058565b801561124a5780601f1061121f5761010080835404028352916020019161124a565b820191906000526020600020905b81548152906001019060200180831161122d57829003601f168201915b5050505050815260200160048201805461126390612058565b80601f016020809104026020016040519081016040528092919081815260200182805461128f90612058565b80156112dc5780601f106112b1576101008083540402835291602001916112dc565b820191906000526020600020905b8154815290600101906020018083116112bf57829003601f168201915b505050505081526020016005820160009054906101000a900473ffffffffffffffffffffffffffffffffffffffff1673ffffffffffffffffffffffffffffffffffffffff1673ffffffffffffffffffffffffffffffffffffffff1681525050905092915050565b60016003600083815260200190815260200160002060070160006101000a81548160ff02191690831515021790555050565b82805461138190612058565b90600052602060002090601f0160209004810192826113a357600085556113ea565b82601f106113bc57805160ff19168380011785556113ea565b828001600101855582156113ea579182015b828111156113e95782518255916020019190600101906113ce565b5b5090506113f79190611464565b5090565b604051806040016040528060608152602001606081525090565b6040518060c001604052806060815260200160608152602001600060ff1681526020016060815260200160608152602001600073ffffffffffffffffffffffffffffffffffffffff1681525090565b5b8082111561147d576000816000905550600101611465565b5090565b600061149461148f84611e7c565b611e4b565b9050808382526020820190508260005b858110156114d457813585016114ba888261155b565b8452602084019350602083019250506001810190506114a4565b5050509392505050565b60006114f16114ec84611ea8565b611e4b565b90508281526020810184848401111561150957600080fd5b611514848285612016565b509392505050565b60008135905061152b81612171565b92915050565b600082601f83011261154257600080fd5b8135611552848260208601611481565b91505092915050565b600082601f83011261156c57600080fd5b813561157c8482602086016114de565b91505092915050565b60008135905061159481612188565b92915050565b6000813590506115a98161219f565b92915050565b600080600080600080600060e0888a0312156115ca57600080fd5b600088013567ffffffffffffffff8111156115e457600080fd5b6115f08a828b0161155b565b975050602088013567ffffffffffffffff81111561160d57600080fd5b6116198a828b0161155b565b965050604088013567ffffffffffffffff81111561163657600080fd5b6116428a828b0161155b565b955050606088013567ffffffffffffffff81111561165f57600080fd5b61166b8a828b0161155b565b945050608088013567ffffffffffffffff81111561168857600080fd5b6116948a828b0161155b565b93505060a088013567ffffffffffffffff8111156116b157600080fd5b6116bd8a828b0161155b565b92505060c06116ce8a828b0161151c565b91505092959891949750929550565b6000602082840312156116ef57600080fd5b60006116fd84828501611585565b91505092915050565b6000806040838503121561171957600080fd5b600061172785828601611585565b925050602083013567ffffffffffffffff81111561174457600080fd5b6117508582860161155b565b9150509250929050565b600080600080600060a0868803121561177257600080fd5b600061178088828901611585565b955050602086013567ffffffffffffffff81111561179d57600080fd5b6117a98882890161155b565b945050604086013567ffffffffffffffff8111156117c657600080fd5b6117d28882890161155b565b935050606086013567ffffffffffffffff8111156117ef57600080fd5b6117fb8882890161155b565b925050608086013567ffffffffffffffff81111561181857600080fd5b6118248882890161155b565b9150509295509295909350565b600080600080600080600060e0888a03121561184c57600080fd5b600061185a8a828b01611585565b975050602088013567ffffffffffffffff81111561187757600080fd5b6118838a828b0161155b565b965050604088013567ffffffffffffffff8111156118a057600080fd5b6118ac8a828b0161155b565b95505060606118bd8a828b0161159a565b945050608088013567ffffffffffffffff8111156118da57600080fd5b6118e68a828b0161155b565b93505060a088013567ffffffffffffffff81111561190357600080fd5b61190f8a828b0161155b565b92505060c06119208a828b0161151c565b91505092959891949750929550565b6000806040838503121561194257600080fd5b600061195085828601611585565b925050602061196185828601611585565b9150509250929050565b600080600080600060a0868803121561198357600080fd5b600061199188828901611585565b95505060206119a288828901611585565b94505060406119b388828901611585565b935050606086013567ffffffffffffffff8111156119d057600080fd5b6119dc88828901611531565b925050608086013567ffffffffffffffff8111156119f957600080fd5b611a058882890161155b565b9150509295509295909350565b611a1b81611faf565b82525050565b611a2a81611faf565b82525050565b611a3981611fd3565b82525050565b6000611a4a82611eed565b611a548185611ef8565b9350611a64818560208601612025565b611a6d81612160565b840191505092915050565b6000611a8382611eed565b611a8d8185611f09565b9350611a9d818560208601612025565b611aa681612160565b840191505092915050565b6000611abc82611eed565b611ac68185611f1a565b9350611ad6818560208601612025565b80840191505092915050565b60008154611aef81612058565b611af98186611f1a565b94506001821660008114611b145760018114611b2557611b58565b60ff19831686528186019350611b58565b611b2e85611ed8565b60005b83811015611b5057815481890152600182019150602081019050611b31565b838801955050505b50505092915050565b60006040830160008301518482036000860152611b7e8282611a3f565b91505060208301518482036020860152611b988282611a3f565b9150508091505092915050565b600060c0830160008301518482036000860152611bc28282611a3f565b91505060208301518482036020860152611bdc8282611a3f565b9150506040830151611bf16040860182611c52565b5060608301518482036060860152611c098282611a3f565b91505060808301518482036080860152611c238282611a3f565b91505060a0830151611c3860a0860182611a12565b508091505092915050565b611c4c81611fff565b82525050565b611c5b81612009565b82525050565b6000611c6d8284611ab1565b915081905092915050565b6000611c848284611ae2565b915081905092915050565b6000602082019050611ca46000830184611a21565b92915050565b6000604082019050611cbf6000830185611a21565b611ccc6020830184611c43565b9392505050565b6000602082019050611ce86000830184611a30565b92915050565b60006020820190508181036000830152611d088184611a78565b905092915050565b6000610160820190508181036000830152611d2b818e611a78565b90508181036020830152611d3f818d611a78565b90508181036040830152611d53818c611a78565b90508181036060830152611d67818b611a78565b90508181036080830152611d7b818a611a78565b905081810360a0830152611d8f8189611a78565b905081810360c0830152611da38188611a78565b9050611db260e0830187611a30565b611dc0610100830186611a21565b611dce610120830185611c43565b611ddc610140830184611c43565b9c9b505050505050505050505050565b60006020820190508181036000830152611e068184611b61565b905092915050565b60006020820190508181036000830152611e288184611ba5565b905092915050565b6000602082019050611e456000830184611c43565b92915050565b6000604051905081810181811067ffffffffffffffff82111715611e7257611e71612131565b5b8060405250919050565b600067ffffffffffffffff821115611e9757611e96612131565b5b602082029050602081019050919050565b600067ffffffffffffffff821115611ec357611ec2612131565b5b601f19601f8301169050602081019050919050565b60008190508160005260206000209050919050565b600081519050919050565b600082825260208201905092915050565b600082825260208201905092915050565b600081905092915050565b6000611f3082611fff565b9150611f3b83611fff565b9250827fffffffffffffffffffffffffffffffffffffffffffffffffffffffffffffffff03821115611f7057611f6f6120d3565b5b828201905092915050565b6000611f8682611fff565b9150611f9183611fff565b925082821015611fa457611fa36120d3565b5b828203905092915050565b6000611fba82611fdf565b9050919050565b6000611fcc82611fdf565b9050919050565b60008115159050919050565b600073ffffffffffffffffffffffffffffffffffffffff82169050919050565b6000819050919050565b600060ff82169050919050565b82818337600083830152505050565b60005b83811015612043578082015181840152602081019050612028565b83811115612052576000848401525b50505050565b6000600282049050600182168061207057607f821691505b6020821081141561208457612083612102565b5b50919050565b600061209582611fff565b91507fffffffffffffffffffffffffffffffffffffffffffffffffffffffffffffffff8214156120c8576120c76120d3565b5b600182019050919050565b7f4e487b7100000000000000000000000000000000000000000000000000000000600052601160045260246000fd5b7f4e487b7100000000000000000000000000000000000000000000000000000000600052602260045260246000fd5b7f4e487b7100000000000000000000000000000000000000000000000000000000600052604160045260246000fd5b6000601f19601f8301169050919050565b61217a81611fc1565b811461218557600080fd5b50565b61219181611fff565b811461219c57600080fd5b50565b6121a881612009565b81146121b357600080fd5b5056fea26469706673582212203e89953c4744c5ee0119faf0184d10239992d338f1d051c5afebbd65fc020df564736f6c63430008000033",
  "immutableReferences": {},
  "source": "//SPDX-License-Identifier: UNLICENSED\r\npragma solidity ^0.8.0;\r\n\r\ncontract Review {\r\n\r\n\tstring public contractName = \"Review SC\";\r\n\taddress public owner; \r\n\r\n    struct ReviewStruct {\r\n        string name;\r\n        string text;\r\n        uint8 rating;\r\n        string code;\r\n        string timeAdded;\r\n        address reviewOwner;\r\n    }\r\n\r\n    struct Code {\r\n        string code;\r\n        string timeGenerated;\r\n    }\r\n\r\n    struct Restaurant {\r\n        string name;\r\n        string restaurantAddress;\r\n        string restaurantLocality;\r\n        string restaurantCountry;\r\n        string restaurantWebsite;\r\n        string imageHash;\r\n        string rating;\r\n        bool deleted;\r\n        address restaurantOwner;\r\n        uint reviewCount;\r\n        uint numberOfCodes;\r\n        mapping(uint => Code) codes;\r\n        mapping(uint => ReviewStruct) reviews;\r\n    }\r\n\r\n    uint public restaurantCount = 0;\r\n    mapping(uint => Restaurant) public restaurants;\r\n\r\n    event Received(address, uint);\r\n    receive() external payable {\r\n        emit Received(msg.sender, msg.value);\r\n    }\r\n\r\n\tconstructor() {\r\n\t\towner = msg.sender;\r\n\t}\r\n\r\n    function deleteRestaurant(uint _restaurantId) external {\r\n        restaurants[_restaurantId].deleted = true;\r\n    }\r\n\r\n    function getReview(uint restaurantID, uint reviewID)\r\n    external view returns (ReviewStruct memory) {\r\n        return restaurants[restaurantID].reviews[reviewID];\r\n    }\r\n\r\n    function addRestaurant(string memory _name, string memory _address, string memory _locality, string memory _country, string memory _website,\r\n    string memory _imageHash, address payable _restaurantOwner) \r\n    external returns (uint restaurantID) {\r\n        restaurantID = restaurantCount;\r\n        Restaurant storage restaurant = restaurants[restaurantID];\r\n        restaurantCount++;\r\n        restaurant.name = _name;\r\n        restaurant.restaurantAddress = _address;\r\n        restaurant.restaurantLocality = _locality;\r\n        restaurant.restaurantCountry = _country;\r\n        restaurant.restaurantWebsite = _website;\r\n        restaurant.imageHash = _imageHash;\r\n        restaurant.rating = \"\";\r\n        restaurant.restaurantOwner = _restaurantOwner;\r\n    }\r\n\r\n    function buyCodes(uint _restaurantId, uint _idx1, uint _idx2, string[] memory _codesArray, string memory _timeGenerated)\r\n    external {\r\n        Restaurant storage restaurant = restaurants[_restaurantId];\r\n        restaurant.numberOfCodes = restaurant.numberOfCodes + _idx2 - _idx1;\r\n        uint i;\r\n        for (i = _idx1; i < _idx2; i ++) {\r\n            restaurant.codes[i] = Code(_codesArray[i - _idx1], _timeGenerated);\r\n        }\r\n    }\r\n\r\n    function getCode(uint _restaurantId, uint _codeIndex) \r\n    external view returns (Code memory) {\r\n        return restaurants[_restaurantId].codes[_codeIndex];\r\n    }\r\n\r\n    function addReview(uint _restaurantId, string memory _name, string memory _description, \r\n    uint8 _rating, string memory _code, string memory _timeAdded, address payable _to) \r\n    external payable returns (bool success) {\r\n        Restaurant storage restaurant = restaurants[_restaurantId];\r\n        restaurant.reviews[restaurant.reviewCount++] = ReviewStruct(_name, _description, _rating, _code, _timeAdded, _to);\r\n        uint i;\r\n        bool pp = false;\r\n        for (i = 0; i < restaurant.reviewCount; i ++) {\r\n            if (keccak256(abi.encodePacked(_code)) == keccak256(abi.encodePacked(restaurant.reviews[i].code))) {\r\n                return false;\r\n            }\r\n        }\r\n        for (i = 0; i < restaurant.numberOfCodes; i ++) {\r\n            if (keccak256(abi.encodePacked(_code)) == keccak256(abi.encodePacked(restaurant.codes[i].code))) {\r\n                pp = true;\r\n                break;\r\n            }\r\n        }\r\n        if (pp) {\r\n            payable(msg.sender).transfer(msg.value + 0.0001 ether);\r\n            return true;\r\n        }\r\n        else return false;\r\n    }\r\n\r\n    function uploadImage(uint _restaurantID, string memory _imageHash) \r\n    external {\r\n        require(bytes(_imageHash).length > 0);\r\n        require(msg.sender != address(0));\r\n        restaurants[_restaurantID].imageHash = _imageHash;\r\n    }\r\n\r\n    function editRestaurant(uint _restaurantId, string memory _address, string memory _locality, \r\n    string memory _country, string memory _website) external {\r\n        restaurants[_restaurantId].restaurantAddress = _address;\r\n        restaurants[_restaurantId].restaurantLocality = _locality;\r\n        restaurants[_restaurantId].restaurantCountry = _country;\r\n        restaurants[_restaurantId].restaurantWebsite = _website;\r\n    }\r\n}\r\n",
  "sourcePath": "C:/Users/user/Desktop/TrustNEat/src/contracts/Review.sol",
  "compiler": {
    "name": "solc",
    "version": "0.8.0+commit.c7dfd78e.Emscripten.clang"
  },
  "schemaVersion": "3.3.4",
  "updatedAt": "2021-03-04T13:00:05.966Z",
  "networkType": "ethereum",
  "devdoc": {
    "kind": "dev",
    "methods": {},
    "version": 1
  },
  "userdoc": {
    "kind": "user",
    "methods": {},
    "version": 1
  }
}