{
  "contractName": "Review",
  "abi": [
    {
      "inputs": [],
      "stateMutability": "nonpayable",
      "type": "constructor"
    },
    {
      "anonymous": false,
      "inputs": [
        {
          "indexed": true,
          "internalType": "address",
          "name": "_from",
          "type": "address"
        },
        {
          "indexed": true,
          "internalType": "address",
          "name": "_to",
          "type": "address"
        },
        {
          "indexed": false,
          "internalType": "uint256",
          "name": "_value",
          "type": "uint256"
        }
      ],
      "name": "Transfer",
      "type": "event"
    },
    {
      "inputs": [],
      "name": "contractName",
      "outputs": [
        {
          "internalType": "string",
          "name": "",
          "type": "string"
        }
      ],
      "stateMutability": "view",
      "type": "function",
      "constant": true
    },
    {
      "inputs": [],
      "name": "owner",
      "outputs": [
        {
          "internalType": "address",
          "name": "",
          "type": "address"
        }
      ],
      "stateMutability": "view",
      "type": "function",
      "constant": true
    },
    {
      "inputs": [
        {
          "internalType": "uint256",
          "name": "",
          "type": "uint256"
        }
      ],
      "name": "restaurants",
      "outputs": [
        {
          "internalType": "string",
          "name": "name",
          "type": "string"
        },
        {
          "internalType": "string",
          "name": "description",
          "type": "string"
        },
        {
          "internalType": "string",
          "name": "imageLink",
          "type": "string"
        },
        {
          "internalType": "string",
          "name": "rating",
          "type": "string"
        }
      ],
      "stateMutability": "view",
      "type": "function",
      "constant": true
    },
    {
      "inputs": [
        {
          "internalType": "string",
          "name": "_name",
          "type": "string"
        },
        {
          "internalType": "string",
          "name": "_description",
          "type": "string"
        },
        {
          "internalType": "address payable",
          "name": "restaurant",
          "type": "address"
        },
        {
          "internalType": "uint256",
          "name": "addingRestaurantValue",
          "type": "uint256"
        }
      ],
      "name": "addRestaurant",
      "outputs": [
        {
          "internalType": "bool",
          "name": "success",
          "type": "bool"
        }
      ],
      "stateMutability": "nonpayable",
      "type": "function"
    },
    {
      "inputs": [
        {
          "internalType": "uint256",
          "name": "_restaurantId",
          "type": "uint256"
        },
        {
          "internalType": "string",
          "name": "_name",
          "type": "string"
        },
        {
          "internalType": "string",
          "name": "_description",
          "type": "string"
        },
        {
          "internalType": "string",
          "name": "_rating",
          "type": "string"
        },
        {
          "internalType": "address payable",
          "name": "_to",
          "type": "address"
        },
        {
          "internalType": "uint256",
          "name": "reviewValue",
          "type": "uint256"
        }
      ],
      "name": "addReview",
      "outputs": [
        {
          "internalType": "bool",
          "name": "success",
          "type": "bool"
        }
      ],
      "stateMutability": "payable",
      "type": "function",
      "payable": true
    }
  ],
  "bytecode": "0x60806040526040518060400160405280600981526020017f52657669657720534300000000000000000000000000000000000000000000008152506000908051906020019061004f9291906100a3565b5034801561005c57600080fd5b5033600160006101000a81548173ffffffffffffffffffffffffffffffffffffffff021916908373ffffffffffffffffffffffffffffffffffffffff160217905550610140565b828054600181600116156101000203166002900490600052602060002090601f016020900481019282601f106100e457805160ff1916838001178555610112565b82800160010185558215610112579182015b828111156101115782518255916020019190600101906100f6565b5b50905061011f9190610123565b5090565b5b8082111561013c576000816000905550600101610124565b5090565b610ea88061014f6000396000f3fe60806040526004361061004a5760003560e01c8063162022f01461004f57806375d0c0dc146101ee5780638da5cb5b1461027e578063ad5461d8146102bf578063b738e2f1146104b7575b600080fd5b34801561005b57600080fd5b506101d66004803603608081101561007257600080fd5b810190808035906020019064010000000081111561008f57600080fd5b8201836020820111156100a157600080fd5b803590602001918460018302840111640100000000831117156100c357600080fd5b91908080601f016020809104026020016040519081016040528093929190818152602001838380828437600081840152601f19601f8201169050808301925050505050505091929192908035906020019064010000000081111561012657600080fd5b82018360208201111561013857600080fd5b8035906020019184600183028401116401000000008311171561015a57600080fd5b91908080601f016020809104026020016040519081016040528093929190818152602001838380828437600081840152601f19601f820116905080830192505050505050509192919290803573ffffffffffffffffffffffffffffffffffffffff169060200190929190803590602001909291905050506106ea565b60405180821515815260200191505060405180910390f35b3480156101fa57600080fd5b50610203610783565b6040518080602001828103825283818151815260200191508051906020019080838360005b83811015610243578082015181840152602081019050610228565b50505050905090810190601f1680156102705780820380516001836020036101000a031916815260200191505b509250505060405180910390f35b34801561028a57600080fd5b50610293610821565b604051808273ffffffffffffffffffffffffffffffffffffffff16815260200191505060405180910390f35b3480156102cb57600080fd5b506102f8600480360360208110156102e257600080fd5b8101908080359060200190929190505050610847565b6040518080602001806020018060200180602001858103855289818151815260200191508051906020019080838360005b83811015610344578082015181840152602081019050610329565b50505050905090810190601f1680156103715780820380516001836020036101000a031916815260200191505b50858103845288818151815260200191508051906020019080838360005b838110156103aa57808201518184015260208101905061038f565b50505050905090810190601f1680156103d75780820380516001836020036101000a031916815260200191505b50858103835287818151815260200191508051906020019080838360005b838110156104105780820151818401526020810190506103f5565b50505050905090810190601f16801561043d5780820380516001836020036101000a031916815260200191505b50858103825286818151815260200191508051906020019080838360005b8381101561047657808201518184015260208101905061045b565b50505050905090810190601f1680156104a35780820380516001836020036101000a031916815260200191505b509850505050505050505060405180910390f35b6106d2600480360360c08110156104cd57600080fd5b8101908080359060200190929190803590602001906401000000008111156104f457600080fd5b82018360208201111561050657600080fd5b8035906020019184600183028401116401000000008311171561052857600080fd5b91908080601f016020809104026020016040519081016040528093929190818152602001838380828437600081840152601f19601f8201169050808301925050505050505091929192908035906020019064010000000081111561058b57600080fd5b82018360208201111561059d57600080fd5b803590602001918460018302840111640100000000831117156105bf57600080fd5b91908080601f016020809104026020016040519081016040528093929190818152602001838380828437600081840152601f19601f8201169050808301925050505050505091929192908035906020019064010000000081111561062257600080fd5b82018360208201111561063457600080fd5b8035906020019184600183028401116401000000008311171561065657600080fd5b91908080601f016020809104026020016040519081016040528093929190818152602001838380828437600081840152601f19601f820116905080830192505050505050509192919290803573ffffffffffffffffffffffffffffffffffffffff16906020019092919080359060200190929190505050610ae4565b60405180821515815260200191505060405180910390f35b6000818373ffffffffffffffffffffffffffffffffffffffff1631101561075c576040517f08c379a0000000000000000000000000000000000000000000000000000000008152600401808060200182810382526043815260200180610e306043913960600191505060405180910390fd5b610764610d27565b8581600001819052508481602001819052506001915050949350505050565b60008054600181600116156101000203166002900480601f0160208091040260200160405190810160405280929190818152602001828054600181600116156101000203166002900480156108195780601f106107ee57610100808354040283529160200191610819565b820191906000526020600020905b8154815290600101906020018083116107fc57829003601f168201915b505050505081565b600160009054906101000a900473ffffffffffffffffffffffffffffffffffffffff1681565b6002818154811061085457fe5b9060005260206000209060050201600091509050806000018054600181600116156101000203166002900480601f0160208091040260200160405190810160405280929190818152602001828054600181600116156101000203166002900480156109005780601f106108d557610100808354040283529160200191610900565b820191906000526020600020905b8154815290600101906020018083116108e357829003601f168201915b505050505090806001018054600181600116156101000203166002900480601f01602080910402602001604051908101604052809291908181526020018280546001816001161561010002031660029004801561099e5780601f106109735761010080835404028352916020019161099e565b820191906000526020600020905b81548152906001019060200180831161098157829003601f168201915b505050505090806002018054600181600116156101000203166002900480601f016020809104026020016040519081016040528092919081815260200182805460018160011615610100020316600290048015610a3c5780601f10610a1157610100808354040283529160200191610a3c565b820191906000526020600020905b815481529060010190602001808311610a1f57829003601f168201915b505050505090806003018054600181600116156101000203166002900480601f016020809104026020016040519081016040528092919081815260200182805460018160011615610100020316600290048015610ada5780601f10610aaf57610100808354040283529160200191610ada565b820191906000526020600020905b815481529060010190602001808311610abd57829003601f168201915b5050505050905084565b6000808373ffffffffffffffffffffffffffffffffffffffff168360405180600001905060006040518083038185875af1925050503d8060008114610b45576040519150601f19603f3d011682016040523d82523d6000602084013e610b4a565b606091505b5050905080610ba4576040517f08c379a000000000000000000000000000000000000000000000000000000000815260040180806020018281038252603c815260200180610df4603c913960400191505060405180910390fd5b8373ffffffffffffffffffffffffffffffffffffffff16600160009054906101000a900473ffffffffffffffffffffffffffffffffffffffff1673ffffffffffffffffffffffffffffffffffffffff167fddf252ad1be2c89b69c2b068fc378daa952ba7f163c4a11628f55a4df523b3ef856040518082815260200191505060405180910390a360028881548110610c3857fe5b906000526020600020906005020160040160405180608001604052808981526020018881526020016040518060200160405280600081525081526020018781525090806001815401808255809150506001900390600052602060002090600402016000909190919091506000820151816000019080519060200190610cbe929190610d56565b506020820151816001019080519060200190610cdb929190610d56565b506040820151816002019080519060200190610cf8929190610d56565b506060820151816003019080519060200190610d15929190610d56565b50505060019150509695505050505050565b6040518060a0016040528060608152602001606081526020016060815260200160608152602001606081525090565b828054600181600116156101000203166002900490600052602060002090601f016020900481019282601f10610d9757805160ff1916838001178555610dc5565b82800160010185558215610dc5579182015b82811115610dc4578251825591602001919060010190610da9565b5b509050610dd29190610dd6565b5090565b5b80821115610def576000816000905550600101610dd7565b509056fe596f752063616e6e6f7420706f7374206120726576696577206265636175736520746865726520617265206e6f7420656e6f7567682066756e647321596f752063616e6e6f74206164642061206e65772072657374617572616e74206265636175736520746865726520617265206e6f7420656e6f7567682066756e647321a26469706673582212202ea8ce5353abc11b184aa939c07e2e55127b8b167c2fc0c28b8457535515f11e64736f6c63430007000033",
  "immutableReferences": {},
  "source": "//SPDX-License-Identifier: UNLICENSED\r\npragma solidity ^0.7.0;\r\n\r\ncontract Review {\r\n\r\n\tstring public contractName = \"Review SC\";\r\n\taddress public owner; \r\n\r\n    Restaurant[] public restaurants;\r\n\r\n    struct ReviewStruct {\r\n        string name;\r\n        string text;\r\n        string imageLink;\r\n        string rating;\r\n    }\r\n\r\n    struct Restaurant {\r\n        string name;\r\n        string description;\r\n        string imageLink;\r\n        string rating;\r\n        ReviewStruct[] reviews;\r\n    }\r\n\r\n    event Transfer(\r\n        address indexed _from,\r\n        address indexed _to,\r\n        uint256 _value\r\n    );\r\n\r\n\tconstructor() {\r\n\t\towner = msg.sender;\r\n\t}\r\n\r\n    function addRestaurant(string memory _name, string memory _description,\r\n    address payable restaurant, uint256 addingRestaurantValue) public returns (bool success) {\r\n        require(restaurant.balance >= addingRestaurantValue, \"You cannot add a new restaurant because there are not enough funds!\");\r\n        //restaurants.push(Restaurant(_name, _description, \"\", \"0\", new ReviewStruct[](0)));\r\n        Restaurant memory restaurantToBeAdded;\r\n        restaurantToBeAdded.name = _name;\r\n        restaurantToBeAdded.description = _description;\r\n        return true;\r\n    }\r\n\r\n    function addReview(uint _restaurantId, string memory _name, string memory _description, string memory _rating, \r\n    address payable _to, uint256 reviewValue) public payable returns (bool success) {\r\n        (bool successSend, ) = _to.call{value: reviewValue}(\"\");\r\n        require(successSend, \"You cannot post a review because there are not enough funds!\");\r\n        emit Transfer(owner, _to, reviewValue);\r\n        restaurants[_restaurantId].reviews.push(ReviewStruct(_name, _description, \"\", _rating));\r\n        return true;\r\n    }\r\n\r\n}\r\n",
  "sourcePath": "C:/Users/erics/source/repos/TrustNEat/src/contracts/Review.sol",
  "compiler": {
    "name": "solc",
    "version": "0.7.0+commit.9e61f92b.Emscripten.clang"
  },
  "schemaVersion": "3.2.3",
  "updatedAt": "2020-11-05T22:54:07.594Z",
  "networkType": "ethereum",
  "devdoc": {
    "kind": "dev",
    "methods": {},
    "version": 1
  },
  "userdoc": {
    "kind": "user",
    "methods": {},
    "version": 1
  }
}